{
  "contractName": "SimpleCoin1",
  "abi": [
    {
      "constant": true,
      "inputs": [
        {
          "name": "",
          "type": "address"
        }
      ],
      "name": "coinBalance",
      "outputs": [
        {
          "name": "",
          "type": "uint256"
        }
      ],
      "payable": false,
      "stateMutability": "view",
      "type": "function"
    },
    {
      "inputs": [],
      "payable": false,
      "stateMutability": "nonpayable",
      "type": "constructor"
    },
    {
      "constant": false,
      "inputs": [
        {
          "name": "_to",
          "type": "address"
        },
        {
          "name": "_amount",
          "type": "uint256"
        }
      ],
      "name": "transfer",
      "outputs": [],
      "payable": false,
      "stateMutability": "nonpayable",
      "type": "function"
    }
  ],
  "bytecode": "0x608060405234801561001057600080fd5b506127106000807314723a09acff6d2a60dcdf7aa4aff308fddc160c73ffffffffffffffffffffffffffffffffffffffff168152602001908152602001600020819055506101d5806100636000396000f30060806040526004361061004c576000357c0100000000000000000000000000000000000000000000000000000000900463ffffffff168063a9059cbb14610051578063fabde80c1461009e575b600080fd5b34801561005d57600080fd5b5061009c600480360381019080803573ffffffffffffffffffffffffffffffffffffffff169060200190929190803590602001909291905050506100f5565b005b3480156100aa57600080fd5b506100df600480360381019080803573ffffffffffffffffffffffffffffffffffffffff169060200190929190505050610191565b6040518082815260200191505060405180910390f35b806000803373ffffffffffffffffffffffffffffffffffffffff1673ffffffffffffffffffffffffffffffffffffffff16815260200190815260200160002060008282540392505081905550806000808473ffffffffffffffffffffffffffffffffffffffff1673ffffffffffffffffffffffffffffffffffffffff168152602001908152602001600020600082825401925050819055505050565b600060205280600052604060002060009150905054815600a165627a7a72305820b8c519136e82cc9b979bbd6222c91bd7ac57840d0dddd21e54565867e14a4f3a0029",
  "source": "pragma solidity ^0.4.24;\r\n\r\ncontract SimpleCoin1 { //#B\r\n\r\n    mapping(address => uint256) public coinBalance; //#C\r\n\r\n    constructor() { //#D\r\n\r\n        coinBalance[0x14723a09acff6d2a60dcdf7aa4aff308fddc160c] = 10000; //#E\r\n    }\r\n\r\n    function transfer(address _to, uint256 _amount) { //#F\r\n        coinBalance[msg.sender] -= _amount; //#G \r\n        coinBalance[_to] += _amount; //#H\r\n    }\r\n}",
  "sourcePath": "C:\\Users\\jmanrique\\Desktop\\Demo-Ethereum-DApps\\contracts\\SampleCoin1.sol",
  "compiler": {
    "name": "solc",
    "version": "0.4.24+commit.e67f0147.Emscripten.clang"
  },
  "schemaVersion": "2.0.1",
  "updatedAt": "2018-09-20T16:04:41.096Z"
}